{
  "_format": "hh-sol-artifact-1",
  "contractName": "ForumAbo",
  "sourceName": "contracts/ForumAbo.sol",
  "abi": [
    {
      "inputs": [],
      "stateMutability": "nonpayable",
      "type": "constructor"
    },
    {
      "anonymous": false,
      "inputs": [
        {
          "indexed": true,
          "internalType": "address",
          "name": "user",
          "type": "address"
        },
        {
          "indexed": false,
          "internalType": "uint256",
          "name": "expiration",
          "type": "uint256"
        }
      ],
      "name": "Abonnement",
      "type": "event"
    },
    {
      "anonymous": false,
      "inputs": [
        {
          "indexed": true,
          "internalType": "address",
          "name": "encaisse",
          "type": "address"
        },
        {
          "indexed": false,
          "internalType": "uint256",
          "name": "montant",
          "type": "uint256"
        }
      ],
      "name": "Retrait",
      "type": "event"
    },
    {
      "inputs": [
        {
          "internalType": "address",
          "name": "",
          "type": "address"
        }
      ],
      "name": "abonnements",
      "outputs": [
        {
          "internalType": "uint256",
          "name": "",
          "type": "uint256"
        }
      ],
      "stateMutability": "view",
      "type": "function"
    },
    {
      "inputs": [],
      "name": "encaisseAddress",
      "outputs": [
        {
          "internalType": "address",
          "name": "",
          "type": "address"
        }
      ],
      "stateMutability": "view",
      "type": "function"
    },
    {
      "inputs": [
        {
          "internalType": "address",
          "name": "user",
          "type": "address"
        }
      ],
      "name": "estAbonne",
      "outputs": [
        {
          "internalType": "bool",
          "name": "",
          "type": "bool"
        }
      ],
      "stateMutability": "view",
      "type": "function"
    },
    {
      "inputs": [],
      "name": "getPrixEnWei",
      "outputs": [
        {
          "internalType": "uint256",
          "name": "",
          "type": "uint256"
        }
      ],
      "stateMutability": "view",
      "type": "function"
    },
    {
      "inputs": [
        {
          "internalType": "address",
          "name": "_nouvelle",
          "type": "address"
        }
      ],
      "name": "modifierEncaisseAddress",
      "outputs": [],
      "stateMutability": "nonpayable",
      "type": "function"
    },
    {
      "inputs": [
        {
          "internalType": "address",
          "name": "_feed",
          "type": "address"
        }
      ],
      "name": "modifierPriceFeed",
      "outputs": [],
      "stateMutability": "nonpayable",
      "type": "function"
    },
    {
      "inputs": [
        {
          "internalType": "uint256",
          "name": "_tauxCentimes",
          "type": "uint256"
        }
      ],
      "name": "modifierTauxEurUsd",
      "outputs": [],
      "stateMutability": "nonpayable",
      "type": "function"
    },
    {
      "inputs": [],
      "name": "owner",
      "outputs": [
        {
          "internalType": "address",
          "name": "",
          "type": "address"
        }
      ],
      "stateMutability": "view",
      "type": "function"
    },
    {
      "inputs": [],
      "name": "priceFeed",
      "outputs": [
        {
          "internalType": "contract AggregatorV3Interface",
          "name": "",
          "type": "address"
        }
      ],
      "stateMutability": "view",
      "type": "function"
    },
    {
      "inputs": [],
      "name": "retirer",
      "outputs": [],
      "stateMutability": "nonpayable",
      "type": "function"
    },
    {
      "inputs": [],
      "name": "sAbonner",
      "outputs": [],
      "stateMutability": "payable",
      "type": "function"
    }
  ],
  "bytecode": "0x608060405273b4a7d8a91f80cce5c4b7c9e16a1315101c89a12d600160006101000a81548173ffffffffffffffffffffffffffffffffffffffff021916908373ffffffffffffffffffffffffffffffffffffffff16021790555034801561006557600080fd5b50336000806101000a81548173ffffffffffffffffffffffffffffffffffffffff021916908373ffffffffffffffffffffffffffffffffffffffff160217905550735f4ec3df9cbd43714fe2740f5e3616155c5b8419600260006101000a81548173ffffffffffffffffffffffffffffffffffffffff021916908373ffffffffffffffffffffffffffffffffffffffff16021790555061104e8061010a6000396000f3fe60806040526004361061009c5760003560e01c80637f1b2169116100645780637f1b2169146101725780638da5cb5b1461019b578063ae166b18146101c6578063cc667b5d146101d0578063dec3dca8146101fb578063ea83cac0146102265761009c565b8063048c60e4146100a157806318ce49f1146100de5780632c9ec603146101075780634f301f871461011e578063741bef1a14610147575b600080fd5b3480156100ad57600080fd5b506100c860048036038101906100c39190610a9e565b610263565b6040516100d59190610ae4565b60405180910390f35b3480156100ea57600080fd5b5061010560048036038101906101009190610a9e565b61027b565b005b34801561011357600080fd5b5061011c61034d565b005b34801561012a57600080fd5b5061014560048036038101906101409190610a9e565b6104ff565b005b34801561015357600080fd5b5061015c6105d1565b6040516101699190610b5e565b60405180910390f35b34801561017e57600080fd5b5061019960048036038101906101949190610ba5565b6105f7565b005b3480156101a757600080fd5b506101b0610688565b6040516101bd9190610be1565b60405180910390f35b6101ce6106ac565b005b3480156101dc57600080fd5b506101e56108ca565b6040516101f29190610be1565b60405180910390f35b34801561020757600080fd5b506102106108f0565b60405161021d9190610ae4565b60405180910390f35b34801561023257600080fd5b5061024d60048036038101906102489190610a9e565b6109f0565b60405161025a9190610c17565b60405180910390f35b60036020528060005260406000206000915090505481565b60008054906101000a900473ffffffffffffffffffffffffffffffffffffffff1673ffffffffffffffffffffffffffffffffffffffff163373ffffffffffffffffffffffffffffffffffffffff1614610309576040517f08c379a000000000000000000000000000000000000000000000000000000000815260040161030090610c8f565b60405180910390fd5b80600260006101000a81548173ffffffffffffffffffffffffffffffffffffffff021916908373ffffffffffffffffffffffffffffffffffffffff16021790555050565b60008054906101000a900473ffffffffffffffffffffffffffffffffffffffff1673ffffffffffffffffffffffffffffffffffffffff163373ffffffffffffffffffffffffffffffffffffffff16146103db576040517f08c379a00000000000000000000000000000000000000000000000000000000081526004016103d290610c8f565b60405180910390fd5b600047905060008111610423576040517f08c379a000000000000000000000000000000000000000000000000000000000815260040161041a90610cfb565b60405180910390fd5b600160009054906101000a900473ffffffffffffffffffffffffffffffffffffffff1673ffffffffffffffffffffffffffffffffffffffff166108fc829081150290604051600060405180830381858888f1935050505015801561048b573d6000803e3d6000fd5b50600160009054906101000a900473ffffffffffffffffffffffffffffffffffffffff1673ffffffffffffffffffffffffffffffffffffffff167f518272ea8ccd0917e11da6d532ac3dfcdaae12fda3c7ed872eaf4dd1b1756bd0826040516104f49190610ae4565b60405180910390a250565b60008054906101000a900473ffffffffffffffffffffffffffffffffffffffff1673ffffffffffffffffffffffffffffffffffffffff163373ffffffffffffffffffffffffffffffffffffffff161461058d576040517f08c379a000000000000000000000000000000000000000000000000000000000815260040161058490610c8f565b60405180910390fd5b80600160006101000a81548173ffffffffffffffffffffffffffffffffffffffff021916908373ffffffffffffffffffffffffffffffffffffffff16021790555050565b600260009054906101000a900473ffffffffffffffffffffffffffffffffffffffff1681565b60008054906101000a900473ffffffffffffffffffffffffffffffffffffffff1673ffffffffffffffffffffffffffffffffffffffff163373ffffffffffffffffffffffffffffffffffffffff1614610685576040517f08c379a000000000000000000000000000000000000000000000000000000000815260040161067c90610c8f565b60405180910390fd5b50565b60008054906101000a900473ffffffffffffffffffffffffffffffffffffffff1681565b60006106b66108f0565b9050803410156106fb576040517f08c379a00000000000000000000000000000000000000000000000000000000081526004016106f290610d8d565b60405180910390fd5b6000600360003373ffffffffffffffffffffffffffffffffffffffff1673ffffffffffffffffffffffffffffffffffffffff16815260200190815260200160002054421161078857600360003373ffffffffffffffffffffffffffffffffffffffff1673ffffffffffffffffffffffffffffffffffffffff1681526020019081526020016000205461078a565b425b905062278d008161079b9190610ddc565b600360003373ffffffffffffffffffffffffffffffffffffffff1673ffffffffffffffffffffffffffffffffffffffff1681526020019081526020016000208190555081341115610839573373ffffffffffffffffffffffffffffffffffffffff166108fc833461080c9190610e10565b9081150290604051600060405180830381858888f19350505050158015610837573d6000803e3d6000fd5b505b3373ffffffffffffffffffffffffffffffffffffffff167fcc0078444bbc91963719c34d65ac382894fce64e0e99e673bedafbc0cae8ee0f600360003373ffffffffffffffffffffffffffffffffffffffff1673ffffffffffffffffffffffffffffffffffffffff168152602001908152602001600020546040516108be9190610ae4565b60405180910390a25050565b600160009054906101000a900473ffffffffffffffffffffffffffffffffffffffff1681565b600080600260009054906101000a900473ffffffffffffffffffffffffffffffffffffffff1673ffffffffffffffffffffffffffffffffffffffff1663feaf968c6040518163ffffffff1660e01b815260040160a060405180830381865afa158015610960573d6000803e3d6000fd5b505050506040513d601f19601f820116820180604052508101906109849190610ed1565b505050915050600081136109cd576040517f08c379a00000000000000000000000000000000000000000000000000000000081526004016109c490610f98565b60405180910390fd5b6000816ab37f89924bb56d790000006109e69190610fe7565b9050809250505090565b600042600360008473ffffffffffffffffffffffffffffffffffffffff1673ffffffffffffffffffffffffffffffffffffffff16815260200190815260200160002054119050919050565b600080fd5b600073ffffffffffffffffffffffffffffffffffffffff82169050919050565b6000610a6b82610a40565b9050919050565b610a7b81610a60565b8114610a8657600080fd5b50565b600081359050610a9881610a72565b92915050565b600060208284031215610ab457610ab3610a3b565b5b6000610ac284828501610a89565b91505092915050565b6000819050919050565b610ade81610acb565b82525050565b6000602082019050610af96000830184610ad5565b92915050565b6000819050919050565b6000610b24610b1f610b1a84610a40565b610aff565b610a40565b9050919050565b6000610b3682610b09565b9050919050565b6000610b4882610b2b565b9050919050565b610b5881610b3d565b82525050565b6000602082019050610b736000830184610b4f565b92915050565b610b8281610acb565b8114610b8d57600080fd5b50565b600081359050610b9f81610b79565b92915050565b600060208284031215610bbb57610bba610a3b565b5b6000610bc984828501610b90565b91505092915050565b610bdb81610a60565b82525050565b6000602082019050610bf66000830184610bd2565b92915050565b60008115159050919050565b610c1181610bfc565b82525050565b6000602082019050610c2c6000830184610c08565b92915050565b600082825260208201905092915050565b7f4e6f6e206175746f726973650000000000000000000000000000000000000000600082015250565b6000610c79600c83610c32565b9150610c8482610c43565b602082019050919050565b60006020820190508181036000830152610ca881610c6c565b9050919050565b7f536f6c6465207669646500000000000000000000000000000000000000000000600082015250565b6000610ce5600a83610c32565b9150610cf082610caf565b602082019050919050565b60006020820190508181036000830152610d1481610cd8565b9050919050565b7f4d6f6e74616e7420696e737566666973616e742028322045555220656e20455460008201527f4820726571756973290000000000000000000000000000000000000000000000602082015250565b6000610d77602983610c32565b9150610d8282610d1b565b604082019050919050565b60006020820190508181036000830152610da681610d6a565b9050919050565b7f4e487b7100000000000000000000000000000000000000000000000000000000600052601160045260246000fd5b6000610de782610acb565b9150610df283610acb565b9250828201905080821115610e0a57610e09610dad565b5b92915050565b6000610e1b82610acb565b9150610e2683610acb565b9250828203905081811115610e3e57610e3d610dad565b5b92915050565b600069ffffffffffffffffffff82169050919050565b610e6381610e44565b8114610e6e57600080fd5b50565b600081519050610e8081610e5a565b92915050565b6000819050919050565b610e9981610e86565b8114610ea457600080fd5b50565b600081519050610eb681610e90565b92915050565b600081519050610ecb81610b79565b92915050565b600080600080600060a08688031215610eed57610eec610a3b565b5b6000610efb88828901610e71565b9550506020610f0c88828901610ea7565b9450506040610f1d88828901610ebc565b9350506060610f2e88828901610ebc565b9250506080610f3f88828901610e71565b9150509295509295909350565b7f5072697820436861696e6c696e6b20696e76616c696465000000000000000000600082015250565b6000610f82601783610c32565b9150610f8d82610f4c565b602082019050919050565b60006020820190508181036000830152610fb181610f75565b9050919050565b7f4e487b7100000000000000000000000000000000000000000000000000000000600052601260045260246000fd5b6000610ff282610acb565b9150610ffd83610acb565b92508261100d5761100c610fb8565b5b82820490509291505056fea264697066735822122046c1f74e486f178d0c9eae0df6a4cdb0af020a779612386b574d1810b3527e3164736f6c63430008140033",
  "linkReferences": {},
  "deployedLinkReferences": {}
}