{
  "_format": "hh-sol-artifact-1",
  "contractName": "ForumAbo",
  "sourceName": "contracts/ForumAbo.sol",
  "abi": [
    {
      "inputs": [],
      "stateMutability": "nonpayable",
      "type": "constructor"
    },
    {
      "anonymous": false,
      "inputs": [
        {
          "indexed": true,
          "internalType": "address",
          "name": "user",
          "type": "address"
        },
        {
          "indexed": false,
          "internalType": "uint256",
          "name": "expiration",
          "type": "uint256"
        }
      ],
      "name": "Abonnement",
      "type": "event"
    },
    {
      "anonymous": false,
      "inputs": [
        {
          "indexed": true,
          "internalType": "address",
          "name": "owner",
          "type": "address"
        },
        {
          "indexed": false,
          "internalType": "uint256",
          "name": "montant",
          "type": "uint256"
        }
      ],
      "name": "Retrait",
      "type": "event"
    },
    {
      "inputs": [
        {
          "internalType": "address",
          "name": "",
          "type": "address"
        }
      ],
      "name": "abonnements",
      "outputs": [
        {
          "internalType": "uint256",
          "name": "",
          "type": "uint256"
        }
      ],
      "stateMutability": "view",
      "type": "function"
    },
    {
      "inputs": [
        {
          "internalType": "address",
          "name": "user",
          "type": "address"
        }
      ],
      "name": "estAbonne",
      "outputs": [
        {
          "internalType": "bool",
          "name": "",
          "type": "bool"
        }
      ],
      "stateMutability": "view",
      "type": "function"
    },
    {
      "inputs": [
        {
          "internalType": "uint256",
          "name": "_nouveauPrix",
          "type": "uint256"
        }
      ],
      "name": "modifierPrix",
      "outputs": [],
      "stateMutability": "nonpayable",
      "type": "function"
    },
    {
      "inputs": [],
      "name": "owner",
      "outputs": [
        {
          "internalType": "address",
          "name": "",
          "type": "address"
        }
      ],
      "stateMutability": "view",
      "type": "function"
    },
    {
      "inputs": [],
      "name": "prixMensuel",
      "outputs": [
        {
          "internalType": "uint256",
          "name": "",
          "type": "uint256"
        }
      ],
      "stateMutability": "view",
      "type": "function"
    },
    {
      "inputs": [],
      "name": "retirer",
      "outputs": [],
      "stateMutability": "nonpayable",
      "type": "function"
    },
    {
      "inputs": [],
      "name": "sAbonner",
      "outputs": [],
      "stateMutability": "payable",
      "type": "function"
    }
  ],
  "bytecode": "0x6080604052662386f26fc1000060015534801561001b57600080fd5b50336000806101000a81548173ffffffffffffffffffffffffffffffffffffffff021916908373ffffffffffffffffffffffffffffffffffffffff1602179055506108d68061006b6000396000f3fe6080604052600436106100705760003560e01c80638da5cb5b1161004e5780638da5cb5b146100f2578063ae166b181461011d578063bd1530b814610127578063ea83cac01461015257610070565b8063048c60e4146100755780632c9ec603146100b25780636a435337146100c9575b600080fd5b34801561008157600080fd5b5061009c6004803603810190610097919061063a565b61018f565b6040516100a99190610680565b60405180910390f35b3480156100be57600080fd5b506100c76101a7565b005b3480156100d557600080fd5b506100f060048036038101906100eb91906106c7565b610312565b005b3480156100fe57600080fd5b506101076103aa565b6040516101149190610703565b60405180910390f35b6101256103ce565b005b34801561013357600080fd5b5061013c610586565b6040516101499190610680565b60405180910390f35b34801561015e57600080fd5b506101796004803603810190610174919061063a565b61058c565b6040516101869190610739565b60405180910390f35b60026020528060005260406000206000915090505481565b60008054906101000a900473ffffffffffffffffffffffffffffffffffffffff1673ffffffffffffffffffffffffffffffffffffffff163373ffffffffffffffffffffffffffffffffffffffff1614610235576040517f08c379a000000000000000000000000000000000000000000000000000000000815260040161022c906107b1565b60405180910390fd5b600047905060008054906101000a900473ffffffffffffffffffffffffffffffffffffffff1673ffffffffffffffffffffffffffffffffffffffff166108fc829081150290604051600060405180830381858888f193505050501580156102a0573d6000803e3d6000fd5b5060008054906101000a900473ffffffffffffffffffffffffffffffffffffffff1673ffffffffffffffffffffffffffffffffffffffff167f518272ea8ccd0917e11da6d532ac3dfcdaae12fda3c7ed872eaf4dd1b1756bd0826040516103079190610680565b60405180910390a250565b60008054906101000a900473ffffffffffffffffffffffffffffffffffffffff1673ffffffffffffffffffffffffffffffffffffffff163373ffffffffffffffffffffffffffffffffffffffff16146103a0576040517f08c379a0000000000000000000000000000000000000000000000000000000008152600401610397906107b1565b60405180910390fd5b8060018190555050565b60008054906101000a900473ffffffffffffffffffffffffffffffffffffffff1681565b600154341015610413576040517f08c379a000000000000000000000000000000000000000000000000000000000815260040161040a9061081d565b60405180910390fd5b6000600260003373ffffffffffffffffffffffffffffffffffffffff1673ffffffffffffffffffffffffffffffffffffffff1681526020019081526020016000205442116104a057600260003373ffffffffffffffffffffffffffffffffffffffff1673ffffffffffffffffffffffffffffffffffffffff168152602001908152602001600020546104a2565b425b905062278d00816104b3919061086c565b600260003373ffffffffffffffffffffffffffffffffffffffff1673ffffffffffffffffffffffffffffffffffffffff168152602001908152602001600020819055503373ffffffffffffffffffffffffffffffffffffffff167fcc0078444bbc91963719c34d65ac382894fce64e0e99e673bedafbc0cae8ee0f600260003373ffffffffffffffffffffffffffffffffffffffff1673ffffffffffffffffffffffffffffffffffffffff1681526020019081526020016000205460405161057b9190610680565b60405180910390a250565b60015481565b600042600260008473ffffffffffffffffffffffffffffffffffffffff1673ffffffffffffffffffffffffffffffffffffffff16815260200190815260200160002054119050919050565b600080fd5b600073ffffffffffffffffffffffffffffffffffffffff82169050919050565b6000610607826105dc565b9050919050565b610617816105fc565b811461062257600080fd5b50565b6000813590506106348161060e565b92915050565b6000602082840312156106505761064f6105d7565b5b600061065e84828501610625565b91505092915050565b6000819050919050565b61067a81610667565b82525050565b60006020820190506106956000830184610671565b92915050565b6106a481610667565b81146106af57600080fd5b50565b6000813590506106c18161069b565b92915050565b6000602082840312156106dd576106dc6105d7565b5b60006106eb848285016106b2565b91505092915050565b6106fd816105fc565b82525050565b600060208201905061071860008301846106f4565b92915050565b60008115159050919050565b6107338161071e565b82525050565b600060208201905061074e600083018461072a565b92915050565b600082825260208201905092915050565b7f4e6f6e206175746f726973650000000000000000000000000000000000000000600082015250565b600061079b600c83610754565b91506107a682610765565b602082019050919050565b600060208201905081810360008301526107ca8161078e565b9050919050565b7f4d6f6e74616e7420696e737566666973616e7400000000000000000000000000600082015250565b6000610807601383610754565b9150610812826107d1565b602082019050919050565b60006020820190508181036000830152610836816107fa565b9050919050565b7f4e487b7100000000000000000000000000000000000000000000000000000000600052601160045260246000fd5b600061087782610667565b915061088283610667565b925082820190508082111561089a5761089961083d565b5b9291505056fea264697066735822122085c220db3c6ca04f9b4a73b34245762de00bf13af34ac456a468a612b6b6474c64736f6c63430008140033",
  "linkReferences": {},
  "deployedLinkReferences": {}
}