{
  "_format": "hh-sol-artifact-1",
  "contractName": "ForumAbo",
  "sourceName": "contracts/ForumAbo.sol",
  "abi": [
    {
      "inputs": [],
      "stateMutability": "nonpayable",
      "type": "constructor"
    },
    {
      "anonymous": false,
      "inputs": [
        {
          "indexed": true,
          "internalType": "address",
          "name": "user",
          "type": "address"
        },
        {
          "indexed": false,
          "internalType": "uint256",
          "name": "expiration",
          "type": "uint256"
        }
      ],
      "name": "Abonnement",
      "type": "event"
    },
    {
      "anonymous": false,
      "inputs": [
        {
          "indexed": true,
          "internalType": "address",
          "name": "encaisse",
          "type": "address"
        },
        {
          "indexed": false,
          "internalType": "uint256",
          "name": "montant",
          "type": "uint256"
        }
      ],
      "name": "Retrait",
      "type": "event"
    },
    {
      "inputs": [],
      "name": "GRATUITS",
      "outputs": [
        {
          "internalType": "uint256",
          "name": "",
          "type": "uint256"
        }
      ],
      "stateMutability": "view",
      "type": "function"
    },
    {
      "inputs": [
        {
          "internalType": "address",
          "name": "",
          "type": "address"
        }
      ],
      "name": "abonnements",
      "outputs": [
        {
          "internalType": "uint256",
          "name": "",
          "type": "uint256"
        }
      ],
      "stateMutability": "view",
      "type": "function"
    },
    {
      "inputs": [],
      "name": "encaisseAddress",
      "outputs": [
        {
          "internalType": "address",
          "name": "",
          "type": "address"
        }
      ],
      "stateMutability": "view",
      "type": "function"
    },
    {
      "inputs": [
        {
          "internalType": "address",
          "name": "user",
          "type": "address"
        }
      ],
      "name": "estAbonne",
      "outputs": [
        {
          "internalType": "bool",
          "name": "",
          "type": "bool"
        }
      ],
      "stateMutability": "view",
      "type": "function"
    },
    {
      "inputs": [],
      "name": "getPrixEnWei",
      "outputs": [
        {
          "internalType": "uint256",
          "name": "",
          "type": "uint256"
        }
      ],
      "stateMutability": "view",
      "type": "function"
    },
    {
      "inputs": [
        {
          "internalType": "address",
          "name": "_nouvelle",
          "type": "address"
        }
      ],
      "name": "modifierEncaisseAddress",
      "outputs": [],
      "stateMutability": "nonpayable",
      "type": "function"
    },
    {
      "inputs": [
        {
          "internalType": "address",
          "name": "_feed",
          "type": "address"
        }
      ],
      "name": "modifierPriceFeed",
      "outputs": [],
      "stateMutability": "nonpayable",
      "type": "function"
    },
    {
      "inputs": [
        {
          "internalType": "uint256",
          "name": "_tauxCentimes",
          "type": "uint256"
        }
      ],
      "name": "modifierTauxEurUsd",
      "outputs": [],
      "stateMutability": "nonpayable",
      "type": "function"
    },
    {
      "inputs": [],
      "name": "owner",
      "outputs": [
        {
          "internalType": "address",
          "name": "",
          "type": "address"
        }
      ],
      "stateMutability": "view",
      "type": "function"
    },
    {
      "inputs": [],
      "name": "priceFeed",
      "outputs": [
        {
          "internalType": "contract AggregatorV3Interface",
          "name": "",
          "type": "address"
        }
      ],
      "stateMutability": "view",
      "type": "function"
    },
    {
      "inputs": [],
      "name": "retirer",
      "outputs": [],
      "stateMutability": "nonpayable",
      "type": "function"
    },
    {
      "inputs": [],
      "name": "sAbonner",
      "outputs": [],
      "stateMutability": "payable",
      "type": "function"
    },
    {
      "inputs": [],
      "name": "totalAbonnes",
      "outputs": [
        {
          "internalType": "uint256",
          "name": "",
          "type": "uint256"
        }
      ],
      "stateMutability": "view",
      "type": "function"
    }
  ],
  "bytecode": "0x608060405273b4a7d8a91f80cce5c4b7c9e16a1315101c89a12d600160006101000a81548173ffffffffffffffffffffffffffffffffffffffff021916908373ffffffffffffffffffffffffffffffffffffffff160217905550600060045534801561006a57600080fd5b50336000806101000a81548173ffffffffffffffffffffffffffffffffffffffff021916908373ffffffffffffffffffffffffffffffffffffffff160217905550735f4ec3df9cbd43714fe2740f5e3616155c5b8419600260006101000a81548173ffffffffffffffffffffffffffffffffffffffff021916908373ffffffffffffffffffffffffffffffffffffffff1602179055506111428061010f6000396000f3fe6080604052600436106100c25760003560e01c80638167addb1161007f578063ba7cf85111610059578063ba7cf85114610221578063cc667b5d1461024c578063dec3dca814610277578063ea83cac0146102a2576100c2565b80638167addb146101c15780638da5cb5b146101ec578063ae166b1814610217576100c2565b8063048c60e4146100c757806318ce49f1146101045780632c9ec6031461012d5780634f301f8714610144578063741bef1a1461016d5780637f1b216914610198575b600080fd5b3480156100d357600080fd5b506100ee60048036038101906100e99190610b4a565b6102df565b6040516100fb9190610b90565b60405180910390f35b34801561011057600080fd5b5061012b60048036038101906101269190610b4a565b6102f7565b005b34801561013957600080fd5b506101426103c9565b005b34801561015057600080fd5b5061016b60048036038101906101669190610b4a565b61057b565b005b34801561017957600080fd5b5061018261064d565b60405161018f9190610c0a565b60405180910390f35b3480156101a457600080fd5b506101bf60048036038101906101ba9190610c51565b610673565b005b3480156101cd57600080fd5b506101d6610704565b6040516101e39190610b90565b60405180910390f35b3480156101f857600080fd5b5061020161070a565b60405161020e9190610c8d565b60405180910390f35b61021f61072e565b005b34801561022d57600080fd5b50610236610970565b6040516102439190610b90565b60405180910390f35b34801561025857600080fd5b50610261610976565b60405161026e9190610c8d565b60405180910390f35b34801561028357600080fd5b5061028c61099c565b6040516102999190610b90565b60405180910390f35b3480156102ae57600080fd5b506102c960048036038101906102c49190610b4a565b610a9c565b6040516102d69190610cc3565b60405180910390f35b60036020528060005260406000206000915090505481565b60008054906101000a900473ffffffffffffffffffffffffffffffffffffffff1673ffffffffffffffffffffffffffffffffffffffff163373ffffffffffffffffffffffffffffffffffffffff1614610385576040517f08c379a000000000000000000000000000000000000000000000000000000000815260040161037c90610d3b565b60405180910390fd5b80600260006101000a81548173ffffffffffffffffffffffffffffffffffffffff021916908373ffffffffffffffffffffffffffffffffffffffff16021790555050565b60008054906101000a900473ffffffffffffffffffffffffffffffffffffffff1673ffffffffffffffffffffffffffffffffffffffff163373ffffffffffffffffffffffffffffffffffffffff1614610457576040517f08c379a000000000000000000000000000000000000000000000000000000000815260040161044e90610d3b565b60405180910390fd5b60004790506000811161049f576040517f08c379a000000000000000000000000000000000000000000000000000000000815260040161049690610da7565b60405180910390fd5b600160009054906101000a900473ffffffffffffffffffffffffffffffffffffffff1673ffffffffffffffffffffffffffffffffffffffff166108fc829081150290604051600060405180830381858888f19350505050158015610507573d6000803e3d6000fd5b50600160009054906101000a900473ffffffffffffffffffffffffffffffffffffffff1673ffffffffffffffffffffffffffffffffffffffff167f518272ea8ccd0917e11da6d532ac3dfcdaae12fda3c7ed872eaf4dd1b1756bd0826040516105709190610b90565b60405180910390a250565b60008054906101000a900473ffffffffffffffffffffffffffffffffffffffff1673ffffffffffffffffffffffffffffffffffffffff163373ffffffffffffffffffffffffffffffffffffffff1614610609576040517f08c379a000000000000000000000000000000000000000000000000000000000815260040161060090610d3b565b60405180910390fd5b80600160006101000a81548173ffffffffffffffffffffffffffffffffffffffff021916908373ffffffffffffffffffffffffffffffffffffffff16021790555050565b600260009054906101000a900473ffffffffffffffffffffffffffffffffffffffff1681565b60008054906101000a900473ffffffffffffffffffffffffffffffffffffffff1673ffffffffffffffffffffffffffffffffffffffff163373ffffffffffffffffffffffffffffffffffffffff1614610701576040517f08c379a00000000000000000000000000000000000000000000000000000000081526004016106f890610d3b565b60405180910390fd5b50565b60045481565b60008054906101000a900473ffffffffffffffffffffffffffffffffffffffff1681565b600061012c600454106107895761074361099c565b905080341015610788576040517f08c379a000000000000000000000000000000000000000000000000000000000815260040161077f90610e39565b60405180910390fd5b5b6000600360003373ffffffffffffffffffffffffffffffffffffffff1673ffffffffffffffffffffffffffffffffffffffff16815260200190815260200160002054421161081657600360003373ffffffffffffffffffffffffffffffffffffffff1673ffffffffffffffffffffffffffffffffffffffff16815260200190815260200160002054610818565b425b905062278d00816108299190610e88565b600360003373ffffffffffffffffffffffffffffffffffffffff1673ffffffffffffffffffffffffffffffffffffffff168152602001908152602001600020819055506004600081548092919061087f90610ebc565b9190505550813411156108df573373ffffffffffffffffffffffffffffffffffffffff166108fc83346108b29190610f04565b9081150290604051600060405180830381858888f193505050501580156108dd573d6000803e3d6000fd5b505b3373ffffffffffffffffffffffffffffffffffffffff167fcc0078444bbc91963719c34d65ac382894fce64e0e99e673bedafbc0cae8ee0f600360003373ffffffffffffffffffffffffffffffffffffffff1673ffffffffffffffffffffffffffffffffffffffff168152602001908152602001600020546040516109649190610b90565b60405180910390a25050565b61012c81565b600160009054906101000a900473ffffffffffffffffffffffffffffffffffffffff1681565b600080600260009054906101000a900473ffffffffffffffffffffffffffffffffffffffff1673ffffffffffffffffffffffffffffffffffffffff1663feaf968c6040518163ffffffff1660e01b815260040160a060405180830381865afa158015610a0c573d6000803e3d6000fd5b505050506040513d601f19601f82011682018060405250810190610a309190610fc5565b50505091505060008113610a79576040517f08c379a0000000000000000000000000000000000000000000000000000000008152600401610a709061108c565b60405180910390fd5b6000816ab37f89924bb56d79000000610a9291906110db565b9050809250505090565b600042600360008473ffffffffffffffffffffffffffffffffffffffff1673ffffffffffffffffffffffffffffffffffffffff16815260200190815260200160002054119050919050565b600080fd5b600073ffffffffffffffffffffffffffffffffffffffff82169050919050565b6000610b1782610aec565b9050919050565b610b2781610b0c565b8114610b3257600080fd5b50565b600081359050610b4481610b1e565b92915050565b600060208284031215610b6057610b5f610ae7565b5b6000610b6e84828501610b35565b91505092915050565b6000819050919050565b610b8a81610b77565b82525050565b6000602082019050610ba56000830184610b81565b92915050565b6000819050919050565b6000610bd0610bcb610bc684610aec565b610bab565b610aec565b9050919050565b6000610be282610bb5565b9050919050565b6000610bf482610bd7565b9050919050565b610c0481610be9565b82525050565b6000602082019050610c1f6000830184610bfb565b92915050565b610c2e81610b77565b8114610c3957600080fd5b50565b600081359050610c4b81610c25565b92915050565b600060208284031215610c6757610c66610ae7565b5b6000610c7584828501610c3c565b91505092915050565b610c8781610b0c565b82525050565b6000602082019050610ca26000830184610c7e565b92915050565b60008115159050919050565b610cbd81610ca8565b82525050565b6000602082019050610cd86000830184610cb4565b92915050565b600082825260208201905092915050565b7f4e6f6e206175746f726973650000000000000000000000000000000000000000600082015250565b6000610d25600c83610cde565b9150610d3082610cef565b602082019050919050565b60006020820190508181036000830152610d5481610d18565b9050919050565b7f536f6c6465207669646500000000000000000000000000000000000000000000600082015250565b6000610d91600a83610cde565b9150610d9c82610d5b565b602082019050919050565b60006020820190508181036000830152610dc081610d84565b9050919050565b7f4d6f6e74616e7420696e737566666973616e742028322045555220656e20455460008201527f4820726571756973290000000000000000000000000000000000000000000000602082015250565b6000610e23602983610cde565b9150610e2e82610dc7565b604082019050919050565b60006020820190508181036000830152610e5281610e16565b9050919050565b7f4e487b7100000000000000000000000000000000000000000000000000000000600052601160045260246000fd5b6000610e9382610b77565b9150610e9e83610b77565b9250828201905080821115610eb657610eb5610e59565b5b92915050565b6000610ec782610b77565b91507fffffffffffffffffffffffffffffffffffffffffffffffffffffffffffffffff8203610ef957610ef8610e59565b5b600182019050919050565b6000610f0f82610b77565b9150610f1a83610b77565b9250828203905081811115610f3257610f31610e59565b5b92915050565b600069ffffffffffffffffffff82169050919050565b610f5781610f38565b8114610f6257600080fd5b50565b600081519050610f7481610f4e565b92915050565b6000819050919050565b610f8d81610f7a565b8114610f9857600080fd5b50565b600081519050610faa81610f84565b92915050565b600081519050610fbf81610c25565b92915050565b600080600080600060a08688031215610fe157610fe0610ae7565b5b6000610fef88828901610f65565b955050602061100088828901610f9b565b945050604061101188828901610fb0565b935050606061102288828901610fb0565b925050608061103388828901610f65565b9150509295509295909350565b7f5072697820436861696e6c696e6b20696e76616c696465000000000000000000600082015250565b6000611076601783610cde565b915061108182611040565b602082019050919050565b600060208201905081810360008301526110a581611069565b9050919050565b7f4e487b7100000000000000000000000000000000000000000000000000000000600052601260045260246000fd5b60006110e682610b77565b91506110f183610b77565b925082611101576111006110ac565b5b82820490509291505056fea26469706673582212208d08f1726a9b3543e215f56e3cb5b9a18d640e7534608946399dc333bfe2b0cd64736f6c63430008140033",
  "linkReferences": {},
  "deployedLinkReferences": {}
}