{
  "_format": "hh-sol-artifact-1",
  "contractName": "ForumAbo",
  "sourceName": "contracts/ForumAbo.sol",
  "abi": [
    {
      "inputs": [],
      "stateMutability": "nonpayable",
      "type": "constructor"
    },
    {
      "anonymous": false,
      "inputs": [
        {
          "indexed": true,
          "internalType": "address",
          "name": "user",
          "type": "address"
        },
        {
          "indexed": false,
          "internalType": "uint256",
          "name": "expiration",
          "type": "uint256"
        }
      ],
      "name": "Abonnement",
      "type": "event"
    },
    {
      "inputs": [],
      "name": "GRATUITS",
      "outputs": [
        {
          "internalType": "uint256",
          "name": "",
          "type": "uint256"
        }
      ],
      "stateMutability": "view",
      "type": "function"
    },
    {
      "inputs": [
        {
          "internalType": "address",
          "name": "",
          "type": "address"
        }
      ],
      "name": "abonnements",
      "outputs": [
        {
          "internalType": "uint256",
          "name": "",
          "type": "uint256"
        }
      ],
      "stateMutability": "view",
      "type": "function"
    },
    {
      "inputs": [],
      "name": "encaisseAddress",
      "outputs": [
        {
          "internalType": "address",
          "name": "",
          "type": "address"
        }
      ],
      "stateMutability": "view",
      "type": "function"
    },
    {
      "inputs": [
        {
          "internalType": "address",
          "name": "user",
          "type": "address"
        }
      ],
      "name": "estAbonne",
      "outputs": [
        {
          "internalType": "bool",
          "name": "",
          "type": "bool"
        }
      ],
      "stateMutability": "view",
      "type": "function"
    },
    {
      "inputs": [],
      "name": "getPrixEnWei",
      "outputs": [
        {
          "internalType": "uint256",
          "name": "",
          "type": "uint256"
        }
      ],
      "stateMutability": "view",
      "type": "function"
    },
    {
      "inputs": [
        {
          "internalType": "address",
          "name": "_nouvelle",
          "type": "address"
        }
      ],
      "name": "modifierEncaisseAddress",
      "outputs": [],
      "stateMutability": "nonpayable",
      "type": "function"
    },
    {
      "inputs": [
        {
          "internalType": "address",
          "name": "_feed",
          "type": "address"
        }
      ],
      "name": "modifierPriceFeed",
      "outputs": [],
      "stateMutability": "nonpayable",
      "type": "function"
    },
    {
      "inputs": [],
      "name": "owner",
      "outputs": [
        {
          "internalType": "address",
          "name": "",
          "type": "address"
        }
      ],
      "stateMutability": "view",
      "type": "function"
    },
    {
      "inputs": [],
      "name": "priceFeed",
      "outputs": [
        {
          "internalType": "contract AggregatorV3Interface",
          "name": "",
          "type": "address"
        }
      ],
      "stateMutability": "view",
      "type": "function"
    },
    {
      "inputs": [],
      "name": "sAbonner",
      "outputs": [],
      "stateMutability": "payable",
      "type": "function"
    },
    {
      "inputs": [],
      "name": "totalAbonnes",
      "outputs": [
        {
          "internalType": "uint256",
          "name": "",
          "type": "uint256"
        }
      ],
      "stateMutability": "view",
      "type": "function"
    }
  ],
  "bytecode": "0x608060405273b4a7d8a91f80cce5c4b7c9e16a1315101c89a12d600160006101000a81548173ffffffffffffffffffffffffffffffffffffffff021916908373ffffffffffffffffffffffffffffffffffffffff160217905550600060045534801561006a57600080fd5b50336000806101000a81548173ffffffffffffffffffffffffffffffffffffffff021916908373ffffffffffffffffffffffffffffffffffffffff160217905550735f4ec3df9cbd43714fe2740f5e3616155c5b8419600260006101000a81548173ffffffffffffffffffffffffffffffffffffffff021916908373ffffffffffffffffffffffffffffffffffffffff160217905550610e5e8061010f6000396000f3fe60806040526004361061009c5760003560e01c80638da5cb5b116100645780638da5cb5b14610186578063ae166b18146101b1578063ba7cf851146101bb578063cc667b5d146101e6578063dec3dca814610211578063ea83cac01461023c5761009c565b8063048c60e4146100a157806318ce49f1146100de5780634f301f8714610107578063741bef1a146101305780638167addb1461015b575b600080fd5b3480156100ad57600080fd5b506100c860048036038101906100c39190610914565b610279565b6040516100d5919061095a565b60405180910390f35b3480156100ea57600080fd5b5061010560048036038101906101009190610914565b610291565b005b34801561011357600080fd5b5061012e60048036038101906101299190610914565b610363565b005b34801561013c57600080fd5b50610145610435565b60405161015291906109d4565b60405180910390f35b34801561016757600080fd5b5061017061045b565b60405161017d919061095a565b60405180910390f35b34801561019257600080fd5b5061019b610461565b6040516101a891906109fe565b60405180910390f35b6101b9610485565b005b3480156101c757600080fd5b506101d061073a565b6040516101dd919061095a565b60405180910390f35b3480156101f257600080fd5b506101fb610740565b60405161020891906109fe565b60405180910390f35b34801561021d57600080fd5b50610226610766565b604051610233919061095a565b60405180910390f35b34801561024857600080fd5b50610263600480360381019061025e9190610914565b610866565b6040516102709190610a34565b60405180910390f35b60036020528060005260406000206000915090505481565b60008054906101000a900473ffffffffffffffffffffffffffffffffffffffff1673ffffffffffffffffffffffffffffffffffffffff163373ffffffffffffffffffffffffffffffffffffffff161461031f576040517f08c379a000000000000000000000000000000000000000000000000000000000815260040161031690610aac565b60405180910390fd5b80600260006101000a81548173ffffffffffffffffffffffffffffffffffffffff021916908373ffffffffffffffffffffffffffffffffffffffff16021790555050565b60008054906101000a900473ffffffffffffffffffffffffffffffffffffffff1673ffffffffffffffffffffffffffffffffffffffff163373ffffffffffffffffffffffffffffffffffffffff16146103f1576040517f08c379a00000000000000000000000000000000000000000000000000000000081526004016103e890610aac565b60405180910390fd5b80600160006101000a81548173ffffffffffffffffffffffffffffffffffffffff021916908373ffffffffffffffffffffffffffffffffffffffff16021790555050565b600260009054906101000a900473ffffffffffffffffffffffffffffffffffffffff1681565b60045481565b60008054906101000a900473ffffffffffffffffffffffffffffffffffffffff1681565b600061012c600454106104e05761049a610766565b9050803410156104df576040517f08c379a00000000000000000000000000000000000000000000000000000000081526004016104d690610b3e565b60405180910390fd5b5b6000600360003373ffffffffffffffffffffffffffffffffffffffff1673ffffffffffffffffffffffffffffffffffffffff16815260200190815260200160002054421161056d57600360003373ffffffffffffffffffffffffffffffffffffffff1673ffffffffffffffffffffffffffffffffffffffff1681526020019081526020016000205461056f565b425b905062278d00816105809190610b8d565b600360003373ffffffffffffffffffffffffffffffffffffffff1673ffffffffffffffffffffffffffffffffffffffff16815260200190815260200160002081905550600460008154809291906105d690610bc1565b919050555081341115610636573373ffffffffffffffffffffffffffffffffffffffff166108fc83346106099190610c09565b9081150290604051600060405180830381858888f19350505050158015610634573d6000803e3d6000fd5b505b60008211156106a957600160009054906101000a900473ffffffffffffffffffffffffffffffffffffffff1673ffffffffffffffffffffffffffffffffffffffff166108fc839081150290604051600060405180830381858888f193505050501580156106a7573d6000803e3d6000fd5b505b3373ffffffffffffffffffffffffffffffffffffffff167fcc0078444bbc91963719c34d65ac382894fce64e0e99e673bedafbc0cae8ee0f600360003373ffffffffffffffffffffffffffffffffffffffff1673ffffffffffffffffffffffffffffffffffffffff1681526020019081526020016000205460405161072e919061095a565b60405180910390a25050565b61012c81565b600160009054906101000a900473ffffffffffffffffffffffffffffffffffffffff1681565b600080600260009054906101000a900473ffffffffffffffffffffffffffffffffffffffff1673ffffffffffffffffffffffffffffffffffffffff1663feaf968c6040518163ffffffff1660e01b815260040160a060405180830381865afa1580156107d6573d6000803e3d6000fd5b505050506040513d601f19601f820116820180604052508101906107fa9190610ce1565b50505091505060008113610843576040517f08c379a000000000000000000000000000000000000000000000000000000000815260040161083a90610da8565b60405180910390fd5b6000816ab37f89924bb56d7900000061085c9190610df7565b9050809250505090565b600042600360008473ffffffffffffffffffffffffffffffffffffffff1673ffffffffffffffffffffffffffffffffffffffff16815260200190815260200160002054119050919050565b600080fd5b600073ffffffffffffffffffffffffffffffffffffffff82169050919050565b60006108e1826108b6565b9050919050565b6108f1816108d6565b81146108fc57600080fd5b50565b60008135905061090e816108e8565b92915050565b60006020828403121561092a576109296108b1565b5b6000610938848285016108ff565b91505092915050565b6000819050919050565b61095481610941565b82525050565b600060208201905061096f600083018461094b565b92915050565b6000819050919050565b600061099a610995610990846108b6565b610975565b6108b6565b9050919050565b60006109ac8261097f565b9050919050565b60006109be826109a1565b9050919050565b6109ce816109b3565b82525050565b60006020820190506109e960008301846109c5565b92915050565b6109f8816108d6565b82525050565b6000602082019050610a1360008301846109ef565b92915050565b60008115159050919050565b610a2e81610a19565b82525050565b6000602082019050610a496000830184610a25565b92915050565b600082825260208201905092915050565b7f4e6f6e206175746f726973650000000000000000000000000000000000000000600082015250565b6000610a96600c83610a4f565b9150610aa182610a60565b602082019050919050565b60006020820190508181036000830152610ac581610a89565b9050919050565b7f4d6f6e74616e7420696e737566666973616e742028322045555220656e20455460008201527f4820726571756973290000000000000000000000000000000000000000000000602082015250565b6000610b28602983610a4f565b9150610b3382610acc565b604082019050919050565b60006020820190508181036000830152610b5781610b1b565b9050919050565b7f4e487b7100000000000000000000000000000000000000000000000000000000600052601160045260246000fd5b6000610b9882610941565b9150610ba383610941565b9250828201905080821115610bbb57610bba610b5e565b5b92915050565b6000610bcc82610941565b91507fffffffffffffffffffffffffffffffffffffffffffffffffffffffffffffffff8203610bfe57610bfd610b5e565b5b600182019050919050565b6000610c1482610941565b9150610c1f83610941565b9250828203905081811115610c3757610c36610b5e565b5b92915050565b600069ffffffffffffffffffff82169050919050565b610c5c81610c3d565b8114610c6757600080fd5b50565b600081519050610c7981610c53565b92915050565b6000819050919050565b610c9281610c7f565b8114610c9d57600080fd5b50565b600081519050610caf81610c89565b92915050565b610cbe81610941565b8114610cc957600080fd5b50565b600081519050610cdb81610cb5565b92915050565b600080600080600060a08688031215610cfd57610cfc6108b1565b5b6000610d0b88828901610c6a565b9550506020610d1c88828901610ca0565b9450506040610d2d88828901610ccc565b9350506060610d3e88828901610ccc565b9250506080610d4f88828901610c6a565b9150509295509295909350565b7f5072697820436861696e6c696e6b20696e76616c696465000000000000000000600082015250565b6000610d92601783610a4f565b9150610d9d82610d5c565b602082019050919050565b60006020820190508181036000830152610dc181610d85565b9050919050565b7f4e487b7100000000000000000000000000000000000000000000000000000000600052601260045260246000fd5b6000610e0282610941565b9150610e0d83610941565b925082610e1d57610e1c610dc8565b5b82820490509291505056fea2646970667358221220237b9dda1b2f15395e5fd3d07cc4ae6e90c7d25c5ea4fba7a47b0e4b9767554b64736f6c63430008140033",
  "linkReferences": {},
  "deployedLinkReferences": {}
}